{
  "_format": "hh-sol-artifact-1",
  "contractName": "Lottery",
  "sourceName": "contracts/Lottery.sol",
  "abi": [
    {
      "inputs": [
        {
          "internalType": "address",
          "name": "initialOwner",
          "type": "address"
        }
      ],
      "stateMutability": "nonpayable",
      "type": "constructor"
    },
    {
      "inputs": [
        {
          "internalType": "address",
          "name": "owner",
          "type": "address"
        }
      ],
      "name": "OwnableInvalidOwner",
      "type": "error"
    },
    {
      "inputs": [
        {
          "internalType": "address",
          "name": "account",
          "type": "address"
        }
      ],
      "name": "OwnableUnauthorizedAccount",
      "type": "error"
    },
    {
      "anonymous": false,
      "inputs": [
        {
          "indexed": true,
          "internalType": "address",
          "name": "bidder",
          "type": "address"
        },
        {
          "indexed": true,
          "internalType": "uint256",
          "name": "itemId",
          "type": "uint256"
        }
      ],
      "name": "BidPlaced",
      "type": "event"
    },
    {
      "anonymous": false,
      "inputs": [
        {
          "indexed": false,
          "internalType": "uint256",
          "name": "amount",
          "type": "uint256"
        }
      ],
      "name": "ContractWithdrawn",
      "type": "event"
    },
    {
      "anonymous": false,
      "inputs": [
        {
          "indexed": true,
          "internalType": "address",
          "name": "previousOwner",
          "type": "address"
        },
        {
          "indexed": true,
          "internalType": "address",
          "name": "newOwner",
          "type": "address"
        }
      ],
      "name": "OwnershipTransferred",
      "type": "event"
    },
    {
      "anonymous": false,
      "inputs": [
        {
          "indexed": false,
          "internalType": "address",
          "name": "winner1",
          "type": "address"
        },
        {
          "indexed": false,
          "internalType": "address",
          "name": "winner2",
          "type": "address"
        },
        {
          "indexed": false,
          "internalType": "address",
          "name": "winner3",
          "type": "address"
        }
      ],
      "name": "WinnersDeclared",
      "type": "event"
    },
    {
      "inputs": [],
      "name": "additionalAuthorized",
      "outputs": [
        {
          "internalType": "address",
          "name": "",
          "type": "address"
        }
      ],
      "stateMutability": "view",
      "type": "function"
    },
    {
      "inputs": [
        {
          "internalType": "uint256",
          "name": "itemId",
          "type": "uint256"
        }
      ],
      "name": "amIWinner",
      "outputs": [
        {
          "internalType": "bool",
          "name": "",
          "type": "bool"
        }
      ],
      "stateMutability": "view",
      "type": "function"
    },
    {
      "inputs": [
        {
          "internalType": "address",
          "name": "",
          "type": "address"
        }
      ],
      "name": "balances",
      "outputs": [
        {
          "internalType": "uint256",
          "name": "",
          "type": "uint256"
        }
      ],
      "stateMutability": "view",
      "type": "function"
    },
    {
      "inputs": [
        {
          "internalType": "uint256",
          "name": "itemId",
          "type": "uint256"
        }
      ],
      "name": "bid",
      "outputs": [],
      "stateMutability": "payable",
      "type": "function"
    },
    {
      "inputs": [],
      "name": "declareWinners",
      "outputs": [],
      "stateMutability": "nonpayable",
      "type": "function"
    },
    {
      "inputs": [],
      "name": "destructContract",
      "outputs": [],
      "stateMutability": "nonpayable",
      "type": "function"
    },
    {
      "inputs": [],
      "name": "drawConducted",
      "outputs": [
        {
          "internalType": "bool",
          "name": "",
          "type": "bool"
        }
      ],
      "stateMutability": "view",
      "type": "function"
    },
    {
      "inputs": [],
      "name": "initiateNewCycle",
      "outputs": [],
      "stateMutability": "nonpayable",
      "type": "function"
    },
    {
      "inputs": [],
      "name": "owner",
      "outputs": [
        {
          "internalType": "address",
          "name": "",
          "type": "address"
        }
      ],
      "stateMutability": "view",
      "type": "function"
    },
    {
      "inputs": [],
      "name": "renounceOwnership",
      "outputs": [],
      "stateMutability": "nonpayable",
      "type": "function"
    },
    {
      "inputs": [
        {
          "internalType": "address",
          "name": "_additional",
          "type": "address"
        }
      ],
      "name": "setAdditionalAuthorized",
      "outputs": [],
      "stateMutability": "nonpayable",
      "type": "function"
    },
    {
      "inputs": [
        {
          "internalType": "address",
          "name": "newOwner",
          "type": "address"
        }
      ],
      "name": "transferContractOwnership",
      "outputs": [],
      "stateMutability": "nonpayable",
      "type": "function"
    },
    {
      "inputs": [
        {
          "internalType": "address",
          "name": "newOwner",
          "type": "address"
        }
      ],
      "name": "transferOwnership",
      "outputs": [],
      "stateMutability": "nonpayable",
      "type": "function"
    },
    {
      "inputs": [],
      "name": "withdraw",
      "outputs": [],
      "stateMutability": "nonpayable",
      "type": "function"
    }
  ],
  "bytecode": "0x60806040523480156200001157600080fd5b5060405162001cba38038062001cba8339818101604052810190620000379190620003f6565b80600073ffffffffffffffffffffffffffffffffffffffff168173ffffffffffffffffffffffffffffffffffffffff1603620000ad5760006040517f1e4fbdf7000000000000000000000000000000000000000000000000000000008152600401620000a4919062000439565b60405180910390fd5b620000be81620002c860201b60201c565b506040518060400160405280600381526020017f4361720000000000000000000000000000000000000000000000000000000000815250600160006001815260200190815260200160002060000190816200011a9190620006d0565b506040518060400160405280600581526020017f50686f6e6500000000000000000000000000000000000000000000000000000081525060016000600281526020019081526020016000206000019081620001769190620006d0565b506040518060400160405280600881526020017f436f6d707574657200000000000000000000000000000000000000000000000081525060016000600381526020019081526020016000206000019081620001d29190620006d0565b506000600190505b600381116200026b5760006001600083815260200190815260200160002060030160006101000a81548173ffffffffffffffffffffffffffffffffffffffff021916908373ffffffffffffffffffffffffffffffffffffffff1602179055506000600160008381526020019081526020016000206004018190555080806200026290620007e6565b915050620001da565b5073153dfef4355e823dcb0fcc76efe942befca86477600360016101000a81548173ffffffffffffffffffffffffffffffffffffffff021916908373ffffffffffffffffffffffffffffffffffffffff1602179055505062000833565b60008060009054906101000a900473ffffffffffffffffffffffffffffffffffffffff169050816000806101000a81548173ffffffffffffffffffffffffffffffffffffffff021916908373ffffffffffffffffffffffffffffffffffffffff1602179055508173ffffffffffffffffffffffffffffffffffffffff168173ffffffffffffffffffffffffffffffffffffffff167f8be0079c531659141344cd1fd0a4f28419497f9722a3daafe3b4186f6b6457e060405160405180910390a35050565b600080fd5b600073ffffffffffffffffffffffffffffffffffffffff82169050919050565b6000620003be8262000391565b9050919050565b620003d081620003b1565b8114620003dc57600080fd5b50565b600081519050620003f081620003c5565b92915050565b6000602082840312156200040f576200040e6200038c565b5b60006200041f84828501620003df565b91505092915050565b6200043381620003b1565b82525050565b600060208201905062000450600083018462000428565b92915050565b600081519050919050565b7f4e487b7100000000000000000000000000000000000000000000000000000000600052604160045260246000fd5b7f4e487b7100000000000000000000000000000000000000000000000000000000600052602260045260246000fd5b60006002820490506001821680620004d857607f821691505b602082108103620004ee57620004ed62000490565b5b50919050565b60008190508160005260206000209050919050565b60006020601f8301049050919050565b600082821b905092915050565b600060088302620005587fffffffffffffffffffffffffffffffffffffffffffffffffffffffffffffffff8262000519565b62000564868362000519565b95508019841693508086168417925050509392505050565b6000819050919050565b6000819050919050565b6000620005b1620005ab620005a5846200057c565b62000586565b6200057c565b9050919050565b6000819050919050565b620005cd8362000590565b620005e5620005dc82620005b8565b84845462000526565b825550505050565b600090565b620005fc620005ed565b62000609818484620005c2565b505050565b5b81811015620006315762000625600082620005f2565b6001810190506200060f565b5050565b601f82111562000680576200064a81620004f4565b620006558462000509565b8101602085101562000665578190505b6200067d620006748562000509565b8301826200060e565b50505b505050565b600082821c905092915050565b6000620006a56000198460080262000685565b1980831691505092915050565b6000620006c0838362000692565b9150826002028217905092915050565b620006db8262000456565b67ffffffffffffffff811115620006f757620006f662000461565b5b620007038254620004bf565b6200071082828562000635565b600060209050601f83116001811462000748576000841562000733578287015190505b6200073f8582620006b2565b865550620007af565b601f1984166200075886620004f4565b60005b8281101562000782578489015182556001820191506020850194506020810190506200075b565b86831015620007a257848901516200079e601f89168262000692565b8355505b6001600288020188555050505b505050505050565b7f4e487b7100000000000000000000000000000000000000000000000000000000600052601160045260246000fd5b6000620007f3826200057c565b91507fffffffffffffffffffffffffffffffffffffffffffffffffffffffffffffffff8203620008285762000827620007b7565b5b600182019050919050565b61147780620008436000396000f3fe6080604052600436106100dd5760003560e01c8063715018a61161007f5780639d03e7dd116100595780639d03e7dd14610255578063a843c51f1461027e578063d06da2cb146102a7578063f2fde38b146102be576100dd565b8063715018a6146101fc5780638da5cb5b146102135780639499e0181461023e576100dd565b80633ccfd60b116100bb5780633ccfd60b14610187578063454a2ab31461019e57806360698244146101ba5780636c648738146101e5576100dd565b80631a1bea9d146100e257806323c54fc51461010d57806327e235e31461014a575b600080fd5b3480156100ee57600080fd5b506100f76102e7565b6040516101049190610e1b565b60405180910390f35b34801561011957600080fd5b50610134600480360381019061012f9190610e71565b61030d565b6040516101419190610eb9565b60405180910390f35b34801561015657600080fd5b50610171600480360381019061016c9190610f00565b6103ca565b60405161017e9190610f3c565b60405180910390f35b34801561019357600080fd5b5061019c6103e2565b005b6101b860048036038101906101b39190610e71565b6104ba565b005b3480156101c657600080fd5b506101cf610658565b6040516101dc9190610eb9565b60405180910390f35b3480156101f157600080fd5b506101fa61066b565b005b34801561020857600080fd5b50610211610786565b005b34801561021f57600080fd5b5061022861079a565b6040516102359190610e1b565b60405180910390f35b34801561024a57600080fd5b506102536107c3565b005b34801561026157600080fd5b5061027c60048036038101906102779190610f00565b6107eb565b005b34801561028a57600080fd5b506102a560048036038101906102a09190610f00565b610837565b005b3480156102b357600080fd5b506102bc6108ac565b005b3480156102ca57600080fd5b506102e560048036038101906102e09190610f00565b610a1c565b005b600360019054906101000a900473ffffffffffffffffffffffffffffffffffffffff1681565b6000600360009054906101000a900460ff1661035e576040517f08c379a000000000000000000000000000000000000000000000000000000000815260040161035590610fb4565b60405180910390fd5b3373ffffffffffffffffffffffffffffffffffffffff166001600084815260200190815260200160002060030160009054906101000a900473ffffffffffffffffffffffffffffffffffffffff1673ffffffffffffffffffffffffffffffffffffffff16149050919050565b60026020528060005260406000206000915090505481565b6103ea610aa2565b600047905060008111610432576040517f08c379a000000000000000000000000000000000000000000000000000000000815260040161042990611020565b60405180910390fd5b61043a61079a565b73ffffffffffffffffffffffffffffffffffffffff166108fc829081150290604051600060405180830381858888f1935050505015801561047f573d6000803e3d6000fd5b507f20ff48730cba4edf79c677a2b72029c367eba9fc2c6626a3b132404d240e0d87816040516104af9190610f3c565b60405180910390a150565b600360009054906101000a900460ff161561050a576040517f08c379a0000000000000000000000000000000000000000000000000000000008152600401610501906110b2565b60405180910390fd5b61051261079a565b73ffffffffffffffffffffffffffffffffffffffff163373ffffffffffffffffffffffffffffffffffffffff160361057f576040517f08c379a00000000000000000000000000000000000000000000000000000000081526004016105769061111e565b60405180910390fd5b662386f26fc1000034146105c8576040517f08c379a00000000000000000000000000000000000000000000000000000000081526004016105bf9061118a565b60405180910390fd5b60006001600083815260200190815260200160002090506105f53382600101610b2990919063ffffffff16565b5080600401600081548092919061060b906111d9565b9190505550813373ffffffffffffffffffffffffffffffffffffffff167f3fabff0a9c3ecd6814702e247fa9733e5d0aa69e3a38590f92cb18f623a2254d60405160405180910390a35050565b600360009054906101000a900460ff1681565b610673610aa2565b600360009054906101000a900460ff166106c2576040517f08c379a00000000000000000000000000000000000000000000000000000000081526004016106b99061126d565b60405180910390fd5b6000600190505b60038111610768576000600160008381526020019081526020016000209050806001016000808201600080820160006107029190610d9c565b5050505060008160030160006101000a81548173ffffffffffffffffffffffffffffffffffffffff021916908373ffffffffffffffffffffffffffffffffffffffff16021790555060008160040181905550508080610760906111d9565b9150506106c9565b506000600360006101000a81548160ff021916908315150217905550565b61078e610aa2565b6107986000610b59565b565b60008060009054906101000a900473ffffffffffffffffffffffffffffffffffffffff16905090565b6107cb610aa2565b6107d361079a565b73ffffffffffffffffffffffffffffffffffffffff16ff5b6107f3610aa2565b80600360016101000a81548173ffffffffffffffffffffffffffffffffffffffff021916908373ffffffffffffffffffffffffffffffffffffffff16021790555050565b61083f610aa2565b61084881610a1c565b8073ffffffffffffffffffffffffffffffffffffffff1661086761079a565b73ffffffffffffffffffffffffffffffffffffffff167f8be0079c531659141344cd1fd0a4f28419497f9722a3daafe3b4186f6b6457e060405160405180910390a350565b6108b4610aa2565b600360009054906101000a900460ff1615610904576040517f08c379a00000000000000000000000000000000000000000000000000000000081526004016108fb906112d9565b60405180910390fd5b600080600190505b600381116109bd576000600160008381526020019081526020016000206004015411156109aa5761095160016000838152602001908152602001600020600101610c1d565b6001600083815260200190815260200160002060030160006101000a81548173ffffffffffffffffffffffffffffffffffffffff021916908373ffffffffffffffffffffffffffffffffffffffff160217905550600191505b80806109b5906111d9565b91505061090c565b50806109fe576040517f08c379a00000000000000000000000000000000000000000000000000000000081526004016109f590611345565b60405180910390fd5b6001600360006101000a81548160ff02191690831515021790555050565b610a24610aa2565b600073ffffffffffffffffffffffffffffffffffffffff168173ffffffffffffffffffffffffffffffffffffffff1603610a965760006040517f1e4fbdf7000000000000000000000000000000000000000000000000000000008152600401610a8d9190610e1b565b60405180910390fd5b610a9f81610b59565b50565b610aaa610c96565b73ffffffffffffffffffffffffffffffffffffffff16610ac861079a565b73ffffffffffffffffffffffffffffffffffffffff1614610b2757610aeb610c96565b6040517f118cdaa7000000000000000000000000000000000000000000000000000000008152600401610b1e9190610e1b565b60405180910390fd5b565b6000610b51836000018373ffffffffffffffffffffffffffffffffffffffff1660001b610c9e565b905092915050565b60008060009054906101000a900473ffffffffffffffffffffffffffffffffffffffff169050816000806101000a81548173ffffffffffffffffffffffffffffffffffffffff021916908373ffffffffffffffffffffffffffffffffffffffff1602179055508173ffffffffffffffffffffffffffffffffffffffff168173ffffffffffffffffffffffffffffffffffffffff167f8be0079c531659141344cd1fd0a4f28419497f9722a3daafe3b4186f6b6457e060405160405180910390a35050565b600080610c2983610d0e565b03610c375760009050610c91565b6000610c4283610d0e565b4244604051602001610c55929190611386565b6040516020818303038152906040528051906020012060001c610c7891906113e1565b9050610c8d8184610d2390919063ffffffff16565b9150505b919050565b600033905090565b6000610caa8383610d3d565b610d03578260000182908060018154018082558091505060019003906000526020600020016000909190919091505582600001805490508360010160008481526020019081526020016000208190555060019050610d08565b600090505b92915050565b6000610d1c82600001610d60565b9050919050565b6000610d328360000183610d71565b60001c905092915050565b600080836001016000848152602001908152602001600020541415905092915050565b600081600001805490509050919050565b6000826000018281548110610d8957610d88611412565b5b9060005260206000200154905092915050565b5080546000825590600052602060002090810190610dba9190610dbd565b50565b5b80821115610dd6576000816000905550600101610dbe565b5090565b600073ffffffffffffffffffffffffffffffffffffffff82169050919050565b6000610e0582610dda565b9050919050565b610e1581610dfa565b82525050565b6000602082019050610e306000830184610e0c565b92915050565b600080fd5b6000819050919050565b610e4e81610e3b565b8114610e5957600080fd5b50565b600081359050610e6b81610e45565b92915050565b600060208284031215610e8757610e86610e36565b5b6000610e9584828501610e5c565b91505092915050565b60008115159050919050565b610eb381610e9e565b82525050565b6000602082019050610ece6000830184610eaa565b92915050565b610edd81610dfa565b8114610ee857600080fd5b50565b600081359050610efa81610ed4565b92915050565b600060208284031215610f1657610f15610e36565b5b6000610f2484828501610eeb565b91505092915050565b610f3681610e3b565b82525050565b6000602082019050610f516000830184610f2d565b92915050565b600082825260208201905092915050565b7f44726177206e6f742079657420636f6e64756374656400000000000000000000600082015250565b6000610f9e601683610f57565b9150610fa982610f68565b602082019050919050565b60006020820190508181036000830152610fcd81610f91565b9050919050565b7f4e6f2066756e647320746f207769746864726177000000000000000000000000600082015250565b600061100a601483610f57565b915061101582610fd4565b602082019050919050565b6000602082019050818103600083015261103981610ffd565b9050919050565b7f54686520647261772068617320616c7265616479206265656e20636f6e64756360008201527f7465640000000000000000000000000000000000000000000000000000000000602082015250565b600061109c602383610f57565b91506110a782611040565b604082019050919050565b600060208201905081810360008301526110cb8161108f565b9050919050565b7f4f776e65722063616e6e6f742062696400000000000000000000000000000000600082015250565b6000611108601083610f57565b9150611113826110d2565b602082019050919050565b60006020820190508181036000830152611137816110fb565b9050919050565b7f496e636f72726563742062696420616d6f756e74000000000000000000000000600082015250565b6000611174601483610f57565b915061117f8261113e565b602082019050919050565b600060208201905081810360008301526111a381611167565b9050919050565b7f4e487b7100000000000000000000000000000000000000000000000000000000600052601160045260246000fd5b60006111e482610e3b565b91507fffffffffffffffffffffffffffffffffffffffffffffffffffffffffffffffff8203611216576112156111aa565b5b600182019050919050565b7f50726576696f75732064726177206e6f7420636f6e6475637465640000000000600082015250565b6000611257601b83610f57565b915061126282611221565b602082019050919050565b600060208201905081810360008301526112868161124a565b9050919050565b7f4472617720616c726561647920636f6e64756374656400000000000000000000600082015250565b60006112c3601683610f57565b91506112ce8261128d565b602082019050919050565b600060208201905081810360008301526112f2816112b6565b9050919050565b7f4e6f206269647320706c6163656420666f7220616e79206974656d7300000000600082015250565b600061132f601c83610f57565b915061133a826112f9565b602082019050919050565b6000602082019050818103600083015261135e81611322565b9050919050565b6000819050919050565b61138061137b82610e3b565b611365565b82525050565b6000611392828561136f565b6020820191506113a2828461136f565b6020820191508190509392505050565b7f4e487b7100000000000000000000000000000000000000000000000000000000600052601260045260246000fd5b60006113ec82610e3b565b91506113f783610e3b565b925082611407576114066113b2565b5b828206905092915050565b7f4e487b7100000000000000000000000000000000000000000000000000000000600052603260045260246000fdfea26469706673582212202666708d5eead8486cd0d6b49a19b5c3c1d5c07b244b8a8e81182dd75959285b64736f6c63430008140033",
  "linkReferences": {},
  "deployedLinkReferences": {}
}